{
  "contractName": "AuthUser",
  "abi": [
    {
      "constant": false,
      "inputs": [
        {
          "name": "add",
          "type": "address"
        },
        {
          "name": "username",
          "type": "string"
        },
        {
          "name": "password",
          "type": "string"
        }
      ],
      "name": "login",
      "outputs": [
        {
          "name": "",
          "type": "bool"
        }
      ],
      "payable": false,
      "stateMutability": "nonpayable",
      "type": "function"
    }
  ],
  "bytecode": "0x608060405260008060006101000a81548160ff02191690831515021790555034801561002a57600080fd5b5061037e8061003a6000396000f300608060405260043610610041576000357c0100000000000000000000000000000000000000000000000000000000900463ffffffff1680637932993714610046575b600080fd5b34801561005257600080fd5b50610113600480360381019080803573ffffffffffffffffffffffffffffffffffffffff169060200190929190803590602001908201803590602001908080601f0160208091040260200160405190810160405280939291908181526020018383808284378201915050505050509192919290803590602001908201803590602001908080601f016020809104026020016040519081016040528093929190818152602001838380828437820191505050505050919291929050505061012d565b604051808215151515815260200191505060405180910390f35b600060608060008060008088955087945060008651148061014f575060008551145b156101595761032f565b899350876040518082805190602001908083835b602083101515610192578051825260208201915060208101905060208303925061016d565b6001836020036101000a038019825116818451168082178552505050505050905001915050604051809103902092508373ffffffffffffffffffffffffffffffffffffffff166331feb6718a6040518263ffffffff167c01000000000000000000000000000000000000000000000000000000000281526004018080602001828103825283818151815260200191508051906020019080838360005b8381101561024957808201518184015260208101905061022e565b50505050905090810190601f1680156102765780820380516001836020036101000a031916815260200191505b5092505050602060405180830381600087803b15801561029557600080fd5b505af11580156102a9573d6000803e3d6000fd5b505050506040513d60208110156102bf57600080fd5b810190808051906020019092919050505091506102dc828461033d565b905080156103145760016000806101000a81548160ff0219169083151502179055506000809054906101000a900460ff169650610330565b60008060006101000a81548160ff0219169083151502179055505b5b5050505050509392505050565b600081600019168360001916149050929150505600a165627a7a72305820a62a526599a8ff437d3a2b04021bfdfbaba98b3f66b072b01fcbe1a33e7a2a740029",
  "source": "pragma solidity ^0.4.18;\r\n\r\ncontract AuthUser{\r\n    bool status = false;\r\n      \r\n    //event LoginAttempt(address sender, string challenge);\r\n    // function login1(string challenge){\r\n    //     LoginAttempt(msg.sender, challenge);\r\n    // }   \r\n    function login(address add,string username, string password) public returns(bool){\r\n        bytes memory emptyUsername = bytes(username);\r\n        bytes memory emptyPassword = bytes(password);\r\n        if(emptyUsername.length==0||emptyPassword.length==0){\r\n            // return(\"Please enter username and password\");\r\n        }else{\r\n            Register user = Register(add);\r\n            bytes32 currPassword = keccak256(password);\r\n            bytes32 userPassword = user.getUser(username);\r\n            \r\n            bool checkPassword = comparePassword(userPassword,currPassword);\r\n            if(checkPassword){\r\n                status = true; \r\n                return status;\r\n            }else{\r\n                status = false;\r\n            }\r\n            //return(\"User logged in\");\r\n        }\r\n    }   \r\n    function comparePassword (bytes32 a, bytes32 b) view private returns (bool){return a == (b);}\r\n}\r\n\r\ncontract Register{\r\n    function getUser(string username) public returns(bytes32);\r\n}",
  "sourcePath": "C:\\Users\\Shusen Shrestha\\Documents\\Summer Work\\FullStack\\SSO\\Solidity\\contracts\\AuthUser.sol",
  "compiler": {
    "name": "solc",
    "version": "0.4.23+commit.124ca40d.Emscripten.clang"
  },
  "schemaVersion": "2.0.0",
  "updatedAt": "2018-05-29T17:51:08.779Z"
}