{
  "contractName": "Register",
  "abi": [
    {
      "inputs": [],
      "payable": false,
      "stateMutability": "nonpayable",
      "type": "constructor"
    },
    {
      "anonymous": false,
      "inputs": [
        {
          "indexed": false,
          "name": "uName",
          "type": "string"
        },
        {
          "indexed": false,
          "name": "pass",
          "type": "bytes32"
        }
      ],
      "name": "newUser",
      "type": "event"
    },
    {
      "constant": false,
      "inputs": [
        {
          "name": "username",
          "type": "string"
        },
        {
          "name": "password",
          "type": "string"
        }
      ],
      "name": "setUser",
      "outputs": [
        {
          "name": "",
          "type": "bool"
        }
      ],
      "payable": false,
      "stateMutability": "nonpayable",
      "type": "function"
    },
    {
      "constant": false,
      "inputs": [
        {
          "name": "username",
          "type": "string"
        }
      ],
      "name": "getUser",
      "outputs": [
        {
          "name": "",
          "type": "bytes32"
        }
      ],
      "payable": false,
      "stateMutability": "nonpayable",
      "type": "function"
    },
    {
      "constant": true,
      "inputs": [],
      "name": "getAllUser",
      "outputs": [
        {
          "name": "",
          "type": "string[]"
        }
      ],
      "payable": false,
      "stateMutability": "view",
      "type": "function"
    },
    {
      "constant": true,
      "inputs": [
        {
          "name": "user",
          "type": "string"
        }
      ],
      "name": "checkExisitingUser",
      "outputs": [
        {
          "name": "",
          "type": "bool"
        }
      ],
      "payable": false,
      "stateMutability": "view",
      "type": "function"
    }
  ],
  "bytecode": "0x608060405260008060006101000a81548160ff02191690831515021790555034801561002a57600080fd5b506000600160405180807f74657374000000000000000000000000000000000000000000000000000000008152506004019050908152602001604051809103902090506040805190810160405280600481526020017f74657374000000000000000000000000000000000000000000000000000000008152508160010190805190602001906100ba929190610161565b507f7061737300000000000000000000000000000000000000000000000000000000816002018160001916905550600160028060018154018082558091505090600182039060005260206000200160006040805190810160405280600481526020017f746573740000000000000000000000000000000000000000000000000000000081525090919091509080519060200190610158929190610161565b50505050610206565b828054600181600116156101000203166002900490600052602060002090601f016020900481019282601f106101a257805160ff19168380011785556101d0565b828001600101855582156101d0579182015b828111156101cf5782518255916020019190600101906101b4565b5b5090506101dd91906101e1565b5090565b61020391905b808211156101ff5760008160009055506001016101e7565b5090565b90565b610aab806102156000396000f300608060405260043610610062576000357c0100000000000000000000000000000000000000000000000000000000900463ffffffff16806302a7dac71461006757806331feb671146100a457806347531df8146100e15780635728b9731461010c575b600080fd5b34801561007357600080fd5b5061008e60048036036100899190810190610747565b610149565b60405161009b919061090e565b60405180910390f35b3480156100b057600080fd5b506100cb60048036036100c69190810190610747565b610271565b6040516100d89190610929565b60405180910390f35b3480156100ed57600080fd5b506100f66102e9565b60405161010391906108ec565b60405180910390f35b34801561011857600080fd5b50610133600480360361012e9190810190610788565b6103d2565b604051610140919061090e565b60405180910390f35b6000806000806002805490509250600091505b828210156102475760028281548110151561017357fe5b90600052602060002001905061022285828054600181600116156101000203166002900480601f0160208091040260200160405190810160405280929190818152602001828054600181600116156101000203166002900480156102185780601f106101ed57610100808354040283529160200191610218565b820191906000526020600020905b8154815290600101906020018083116101fb57829003601f168201915b5050505050610573565b6000806101000a81548160ff021916908315150217905550818060010192505061015c565b6000809054906101000a900460ff16156102645760019350610269565b600093505b505050919050565b60006001826040518082805190602001908083835b6020831015156102ab5780518252602082019150602081019050602083039250610286565b6001836020036101000a0380198251168184511680821785525050505050509050019150509081526020016040518091039020600201549050919050565b60606002805480602002602001604051908101604052809291908181526020016000905b828210156103c9578382906000526020600020018054600181600116156101000203166002900480601f0160208091040260200160405190810160405280929190818152602001828054600181600116156101000203166002900480156103b55780601f1061038a576101008083540402835291602001916103b5565b820191906000526020600020905b81548152906001019060200180831161039857829003601f168201915b50505050508152602001906001019061030d565b50505050905090565b6000806000806001866040518082805190602001908083835b60208310151561041057805182526020820191506020810190506020830392506103eb565b6001836020036101000a0380198251168184511680821785525050505050509050019150509081526020016040518091039020925061044e86610149565b9150811561045f576000935061056a565b846040518082805190602001908083835b6020831015156104955780518252602082019150602081019050602083039250610470565b6001836020036101000a03801982511681845116808217855250505050505090500191505060405180910390209050858360010190805190602001906104dc92919061064c565b50808360020181600019169055506001600287908060018154018082558091505090600182039060005260206000200160009091929091909150908051906020019061052992919061064c565b5050507fd5abaca7dce60cf115e06ac307a7f37f9d32096f409b8158f95229eaf6571499868260405161055d929190610944565b60405180910390a1600193505b50505092915050565b6000816040518082805190602001908083835b6020831015156105ab5780518252602082019150602081019050602083039250610586565b6001836020036101000a038019825116818451168082178552505050505050905001915050604051809103902060001916836040518082805190602001908083835b60208310151561061257805182526020820191506020810190506020830392506105ed565b6001836020036101000a03801982511681845116808217855250505050505090500191505060405180910390206000191614905092915050565b828054600181600116156101000203166002900490600052602060002090601f016020900481019282601f1061068d57805160ff19168380011785556106bb565b828001600101855582156106bb579182015b828111156106ba57825182559160200191906001019061069f565b5b5090506106c891906106cc565b5090565b6106ee91905b808211156106ea5760008160009055506001016106d2565b5090565b90565b600082601f830112151561070457600080fd5b8135610717610712826109a1565b610974565b9150808252602083016020830185838301111561073357600080fd5b61073e838284610a1e565b50505092915050565b60006020828403121561075957600080fd5b600082013567ffffffffffffffff81111561077357600080fd5b61077f848285016106f1565b91505092915050565b6000806040838503121561079b57600080fd5b600083013567ffffffffffffffff8111156107b557600080fd5b6107c1858286016106f1565b925050602083013567ffffffffffffffff8111156107de57600080fd5b6107ea858286016106f1565b9150509250929050565b60006107ff826109da565b80845260208401935083602082028501610818856109cd565b60005b848110156108515783830388526108338383516108b6565b925061083e826109fb565b915060208801975060018101905061081b565b508196508694505050505092915050565b61086b81610a08565b82525050565b61087a81610a14565b82525050565b600061088b826109f0565b80845261089f816020860160208601610a2d565b6108a881610a60565b602085010191505092915050565b60006108c1826109e5565b8084526108d5816020860160208601610a2d565b6108de81610a60565b602085010191505092915050565b6000602082019050818103600083015261090681846107f4565b905092915050565b60006020820190506109236000830184610862565b92915050565b600060208201905061093e6000830184610871565b92915050565b6000604082019050818103600083015261095e8185610880565b905061096d6020830184610871565b9392505050565b6000604051905081810181811067ffffffffffffffff8211171561099757600080fd5b8060405250919050565b600067ffffffffffffffff8211156109b857600080fd5b601f19601f8301169050602081019050919050565b6000602082019050919050565b600081519050919050565b600081519050919050565b600081519050919050565b6000602082019050919050565b60008115159050919050565b6000819050919050565b82818337600083830152505050565b60005b83811015610a4b578082015181840152602081019050610a30565b83811115610a5a576000848401525b50505050565b6000601f19601f83011690509190505600a265627a7a72305820da724781081609fe0199a5aa870b470c724d3645707e7853dd65c8c31b2ef8156c6578706572696d656e74616cf50037",
  "source": "pragma solidity ^0.4.18;\r\npragma experimental ABIEncoderV2;\r\ncontract Register{\r\n    constructor() public{\r\n        var user = logins[\"test\"];\r\n\r\n        user.uName = \"test\";\r\n        user.pWord = \"pass\";\r\n\r\n        userArray.push(\"test\") - 1;\r\n    }\r\n    bool existingUser = false;\r\n    struct userLogin{\r\n        uint id;\r\n        string uName;\r\n        bytes32 pWord;\r\n    }\r\n\r\n    event newUser(\r\n        string uName,\r\n        bytes32 pass\r\n    );\r\n    mapping (string => userLogin) logins;\r\n    string[] private userArray;\r\n    \r\n    function setUser(string username, string password)public returns(bool){\r\n        var user = logins[username];\r\n        bool check = checkExisitingUser(username);\r\n        if(check){\r\n            return false;\r\n        }else{\r\n            bytes32 encryptedPassword = keccak256(password);\r\n        \r\n            user.uName = username;\r\n            user.pWord = encryptedPassword;\r\n\r\n            userArray.push(username) - 1;\r\n            emit newUser(username,encryptedPassword);\r\n            return true;\r\n        }\r\n\r\n    }\r\n    \r\n    function getUser(string username) public returns(bytes32){\r\n        return(logins[username].pWord);\r\n    }\r\n    function getAllUser() view public returns(string[]){\r\n        return userArray;\r\n    }\r\n    \r\n    function checkExisitingUser(string user) view public returns(bool){\r\n        uint arrayLength = userArray.length;\r\n        for(uint i = 0; i < arrayLength;i++){\r\n            string userInArray = userArray[i];\r\n            \r\n            existingUser = compareStrings(user,userInArray);\r\n        }\r\n        if(existingUser){\r\n            return true;\r\n        }else{\r\n            return false;\r\n        }            \r\n    }\r\n    \r\n    function compareStrings (string a, string b) view private returns (bool){return keccak256(a) == keccak256(b);}\r\n}",
  "sourcePath": "C:\\Users\\Shusen Shrestha\\Documents\\Summer Work\\FullStack\\SSO\\Solidity\\contracts\\Register.sol",
  "compiler": {
    "name": "solc",
    "version": "0.4.23+commit.124ca40d.Emscripten.clang"
  },
  "schemaVersion": "2.0.0",
  "updatedAt": "2018-05-29T17:51:08.788Z"
}