{
  "contractName": "Token",
  "abi": [
    {
      "constant": false,
      "inputs": [
        {
          "name": "a",
          "type": "string"
        }
      ],
      "name": "generateToken",
      "outputs": [
        {
          "name": "",
          "type": "bytes32"
        }
      ],
      "payable": false,
      "stateMutability": "nonpayable",
      "type": "function"
    },
    {
      "constant": true,
      "inputs": [
        {
          "name": "a",
          "type": "string"
        }
      ],
      "name": "getToken",
      "outputs": [
        {
          "name": "",
          "type": "string"
        }
      ],
      "payable": false,
      "stateMutability": "view",
      "type": "function"
    }
  ],
  "bytecode": "0x6080604052600160005534801561001557600080fd5b50610521806100256000396000f30060806040526004361061004c576000357c0100000000000000000000000000000000000000000000000000000000900463ffffffff1680630830538d14610051578063c1733f68146100d6575b600080fd5b34801561005d57600080fd5b506100b8600480360381019080803590602001908201803590602001908080601f01602080910402602001604051908101604052809392919081815260200183838082843782019150505050505091929192905050506101b8565b60405180826000191660001916815260200191505060405180910390f35b3480156100e257600080fd5b5061013d600480360381019080803590602001908201803590602001908080601f0160208091040260200160405190810160405280939291908181526020018383808284378201915050505050509192919290505050610325565b6040518080602001828103825283818151815260200191508051906020019080838360005b8381101561017d578082015181840152602081019050610162565b50505050905090810190601f1680156101aa5780820380516001836020036101000a031916815260200191505b509250505060405180910390f35b60008060006001846040518082805190602001908083835b6020831015156101f557805182526020820191506020810190506020830392506101d0565b6001836020036101000a03801982511681845116808217855250505050505090500191505090815260200160405180910390209150836000546040518083805190602001908083835b602083101515610263578051825260208201915060208101905060208303925061023e565b6001836020036101000a03801982511681845116808217855250505050505090500182815260200192505050604051809103902090506000808154809291906001019190505550838260000190805190602001906102c2929190610450565b508082600101816000191690555042826002018190555060016002859080600181540180825580915050906001820390600052602060002001600090919290919091509080519060200190610318929190610450565b5050508092505050919050565b60606000610332836103b6565b90508015610377576040805190810160405280600481526020017f74656d700000000000000000000000000000000000000000000000000000000081525091506103b0565b6040805190810160405280600581526020017f6572726f7200000000000000000000000000000000000000000000000000000081525091505b50919050565b60008060006001846040518082805190602001908083835b6020831015156103f357805182526020820191506020810190506020830392506103ce565b6001836020036101000a03801982511681845116808217855250505050505090500191505090815260200160405180910390209150816002015442039050603c811015156104445760009250610449565b600192505b5050919050565b828054600181600116156101000203166002900490600052602060002090601f016020900481019282601f1061049157805160ff19168380011785556104bf565b828001600101855582156104bf579182015b828111156104be5782518255916020019190600101906104a3565b5b5090506104cc91906104d0565b5090565b6104f291905b808211156104ee5760008160009055506001016104d6565b5090565b905600a165627a7a72305820e138cc7e906988cd27e8a5cd8f01a15c6a7b1ff2828798dc9e8e7fbb0fa488720029",
  "source": "pragma solidity ^0.4.19;\r\n\r\ncontract Token{\r\n    uint inc =1;\r\n    struct tokenList{\r\n        string username;\r\n        bytes32 token;\r\n        uint time;\r\n    }\r\n\r\n    mapping (string => tokenList) validUsers;\r\n    string[] private validTokenArray;\r\n    \r\n    function generateToken(string a)public returns(bytes32){\r\n        var user = validUsers[a];\r\n        bytes32 token;\r\n        token = keccak256(a,inc);\r\n        //token = keccak256(inc);\r\n        inc++;\r\n        user.username = a;\r\n        user.token = token;\r\n        user.time = block.timestamp;\r\n        validTokenArray.push(a) - 1;\r\n        return token;\r\n    }\r\n    \r\n    function getToken(string a) view public returns(string){\r\n        bool valid = validateToken(a);\r\n        if(valid){\r\n            return \"temp\";\r\n        }else{\r\n            return \"error\";\r\n        }\r\n    }\r\n    \r\n    function validateToken(string a) private returns(bool){\r\n        var user = validUsers[a];\r\n        uint diff = block.timestamp - user.time;\r\n        if(diff >= 60){\r\n            return false;\r\n        }else{\r\n            return true;\r\n        }\r\n    }\r\n}",
  "sourcePath": "C:\\Users\\Shusen Shrestha\\Documents\\Summer Work\\FullStack\\SSO\\Solidity\\contracts\\token.sol",
  "compiler": {
    "name": "solc",
    "version": "0.4.23+commit.124ca40d.Emscripten.clang"
  },
  "schemaVersion": "2.0.0",
  "updatedAt": "2018-05-29T17:46:52.514Z"
}