{
  "contractName": "AuthUser",
  "abi": [
    {
      "anonymous": false,
      "inputs": [
        {
          "indexed": false,
          "name": "uName",
          "type": "string"
        },
        {
          "indexed": false,
          "name": "token",
          "type": "bytes32"
        }
      ],
      "name": "newUser",
      "type": "event"
    },
    {
      "constant": false,
      "inputs": [
        {
          "name": "add",
          "type": "address"
        },
        {
          "name": "addToken",
          "type": "address"
        },
        {
          "name": "username",
          "type": "string"
        },
        {
          "name": "password",
          "type": "string"
        }
      ],
      "name": "login",
      "outputs": [
        {
          "name": "",
          "type": "bool"
        }
      ],
      "payable": false,
      "stateMutability": "nonpayable",
      "type": "function"
    }
  ],
  "bytecode": "0x608060405260008060006101000a81548160ff02191690831515021790555034801561002a57600080fd5b506105668061003a6000396000f300608060405260043610610041576000357c0100000000000000000000000000000000000000000000000000000000900463ffffffff1680636282fcd314610046575b600080fd5b34801561005257600080fd5b50610133600480360381019080803573ffffffffffffffffffffffffffffffffffffffff169060200190929190803573ffffffffffffffffffffffffffffffffffffffff169060200190929190803590602001908201803590602001908080601f0160208091040260200160405190810160405280939291908181526020018383808284378201915050505050509192919290803590602001908201803590602001908080601f016020809104026020016040519081016040528093929190818152602001838380828437820191505050505050919291929050505061014d565b604051808215151515815260200191505060405180910390f35b60006060806000806000806000899650889550600087511480610171575060008651145b1561017f57600097506104b4565b8b94508473ffffffffffffffffffffffffffffffffffffffff166331feb6718b6040518263ffffffff167c01000000000000000000000000000000000000000000000000000000000281526004018080602001828103825283818151815260200191508051906020019080838360005b8381101561020a5780820151818401526020810190506101ef565b50505050905090810190601f1680156102375780820380516001836020036101000a031916815260200191505b5092505050602060405180830381600087803b15801561025657600080fd5b505af115801561026a573d6000803e3d6000fd5b505050506040513d602081101561028057600080fd5b8101908080519060200190929190505050935061029d848a6104c3565b925082156104885760016000806101000a81548160ff0219169083151502179055508a91508173ffffffffffffffffffffffffffffffffffffffff16630830538d8b6040518263ffffffff167c01000000000000000000000000000000000000000000000000000000000281526004018080602001828103825283818151815260200191508051906020019080838360005b8381101561034a57808201518184015260208101905061032f565b50505050905090810190601f1680156103775780820380516001836020036101000a031916815260200191505b5092505050602060405180830381600087803b15801561039657600080fd5b505af11580156103aa573d6000803e3d6000fd5b505050506040513d60208110156103c057600080fd5b810190808051906020019092919050505090507fd5abaca7dce60cf115e06ac307a7f37f9d32096f409b8158f95229eaf65714998a8260405180806020018360001916600019168152602001828103825284818151815260200191508051906020019080838360005b83811015610444578082015181840152602081019050610429565b50505050905090810190601f1680156104715780820380516001836020036101000a031916815260200191505b50935050505060405180910390a1600197506104b4565b60008060006101000a81548160ff0219169083151502179055506000809054906101000a900460ff1697505b50505050505050949350505050565b6000816040518082805190602001908083835b6020831015156104fb57805182526020820191506020810190506020830392506104d6565b6001836020036101000a0380198251168184511680821785525050505050509050019150506040518091039020600019168360001916149050929150505600a165627a7a723058203d09399ae5d8f4ede48dba9dbd7561d4f040f6eb6600e150d0086ef99ff49c400029",
  "source": "pragma solidity ^0.4.18;\r\n\r\ncontract AuthUser{\r\n    bool status = false;\r\n      \r\n    //event LoginAttempt(address sender, string challenge);\r\n    // function login1(string challenge){\r\n    //     LoginAttempt(msg.sender, challenge);\r\n    // }   \r\n    event newUser(\r\n        string uName,\r\n        bytes32 token\r\n    );\r\n    function login(address add,address addToken,string username, string password) public returns(bool){\r\n        bytes memory emptyUsername = bytes(username);\r\n        bytes memory emptyPassword = bytes(password);\r\n        if(emptyUsername.length==0||emptyPassword.length==0){\r\n            return(false);\r\n        }else{\r\n            Register user = Register(add);\r\n            bytes32 userPassword = user.getUser(username);\r\n            \r\n            bool checkPassword = comparePassword(userPassword,password);\r\n            if(checkPassword){\r\n                status = true;\r\n                Token token = Token(addToken);\r\n                bytes32 userToken = token.generateToken(username);\r\n                emit newUser(username,userToken);\r\n\r\n                return(true);\r\n\r\n            }else{\r\n                status = false;\r\n                return(status);\r\n            }\r\n            \r\n        }\r\n    } \r\n    function comparePassword (bytes32 a, string b) view private returns (bool){return a == keccak256(b);}\r\n}\r\n\r\ncontract Register{\r\n    function getUser(string username) public returns(bytes32);\r\n}\r\ncontract Token{\r\n    function generateToken(string a)public returns(bytes32); \r\n}",
  "sourcePath": "C:\\Users\\Shusen Shrestha\\Documents\\Summer Work\\FullStack\\Site2\\contracts\\AuthUser.sol",
  "compiler": {
    "name": "solc",
    "version": "0.4.23+commit.124ca40d.Emscripten.clang"
  },
  "schemaVersion": "2.0.0",
  "updatedAt": "2018-06-14T17:23:41.761Z"
}