{
  "contractName": "Token",
  "abi": [
    {
      "constant": false,
      "inputs": [
        {
          "name": "a",
          "type": "string"
        }
      ],
      "name": "generateToken",
      "outputs": [
        {
          "name": "",
          "type": "bytes32"
        }
      ],
      "payable": false,
      "stateMutability": "nonpayable",
      "type": "function"
    },
    {
      "constant": true,
      "inputs": [
        {
          "name": "a",
          "type": "bytes32"
        }
      ],
      "name": "getToken",
      "outputs": [
        {
          "name": "",
          "type": "string"
        }
      ],
      "payable": false,
      "stateMutability": "view",
      "type": "function"
    },
    {
      "constant": false,
      "inputs": [
        {
          "name": "token",
          "type": "bytes32"
        }
      ],
      "name": "thirdPartyAuth",
      "outputs": [
        {
          "name": "",
          "type": "bool"
        },
        {
          "name": "",
          "type": "bytes32"
        }
      ],
      "payable": false,
      "stateMutability": "nonpayable",
      "type": "function"
    },
    {
      "constant": false,
      "inputs": [],
      "name": "generateThirdPartyToken",
      "outputs": [
        {
          "name": "",
          "type": "bytes32"
        }
      ],
      "payable": false,
      "stateMutability": "nonpayable",
      "type": "function"
    }
  ],
  "bytecode": "0x6080604052600160005534801561001557600080fd5b5061054b806100256000396000f300608060405260043610610062576000357c0100000000000000000000000000000000000000000000000000000000900463ffffffff1680630830538d14610067578063155bf4e2146100ec578063607615ed14610196578063c733e88d146101c9575b600080fd5b34801561007357600080fd5b506100ce600480360381019080803590602001908201803590602001908080601f0160208091040260200160405190810160405280939291908181526020018383808284378201915050505050509192919290505050610221565b60405180826000191660001916815260200191505060405180910390f35b3480156100f857600080fd5b5061011b6004803603810190808035600019169060200190929190505050610331565b6040518080602001828103825283818151815260200191508051906020019080838360005b8381101561015b578082015181840152602081019050610140565b50505050905090810190601f1680156101885780820380516001836020036101000a031916815260200191505b509250505060405180910390f35b3480156101a257600080fd5b506101ab6103c2565b60405180826000191660001916815260200191505060405180910390f35b3480156101d557600080fd5b506101f860048036038101908080356000191690602001909291905050506103ec565b604051808315151515815260200182600019166000191681526020019250505060405180910390f35b6000806000836000546040518083805190602001908083835b60208310151561025f578051825260208201915060208101905060208303925061023a565b6001836020036101000a038019825116818451168082178552505050505050905001828152602001925050506040518091039020915060016000836000191660001916815260200190815260200160002090506000808154809291906001019190505550838160000190805190602001906102db92919061047a565b508181600101816000191690555042816002018190555060016002839080600181540180825580915050906001820390600052602060002001600090919290919091509060001916905550508192505050919050565b6060600061033e8361042e565b90508015610383576040805190810160405280600481526020017f74656d700000000000000000000000000000000000000000000000000000000081525091506103bc565b6040805190810160405280600581526020017f6572726f7200000000000000000000000000000000000000000000000000000081525091505b50919050565b60008043426040518083815260200182815260200192505050604051809103902090508091505090565b6000806000806103fb8561042e565b915081156104195761040b6103c2565b905060018193509350610427565b600080806001029050935093505b5050915091565b600080600060016000856000191660001916815260200190815260200160002091508160020154420390506202a3008110151561046e5760009250610473565b600192505b5050919050565b828054600181600116156101000203166002900490600052602060002090601f016020900481019282601f106104bb57805160ff19168380011785556104e9565b828001600101855582156104e9579182015b828111156104e85782518255916020019190600101906104cd565b5b5090506104f691906104fa565b5090565b61051c91905b80821115610518576000816000905550600101610500565b5090565b905600a165627a7a7230582086597cd17b159ad86ac797bd70a1707deaa4ba5298b1faeb249b7ec6e89899a40029",
  "source": "pragma solidity ^0.4.19;\r\n\r\ncontract Token{\r\n    uint inc =1;\r\n    struct tokenList{\r\n        string username;\r\n        bytes32 token;\r\n        uint time;\r\n    }\r\n\r\n    mapping (bytes32 => tokenList) validUsers;\r\n    bytes32[] private validTokenArray;\r\n    \r\n    function generateToken(string a)public returns(bytes32){\r\n        bytes32 token;\r\n        token = keccak256(a,inc);\r\n        var user = validUsers[token];\r\n\r\n        inc++;\r\n        user.username=a;\r\n        user.token = token;\r\n        user.time = block.timestamp;\r\n        validTokenArray.push(token) - 1;\r\n        return token;\r\n    }\r\n    \r\n    function getToken(bytes32 a) view public returns(string){\r\n        bool valid = validateToken(a);\r\n        if(valid){\r\n            return \"temp\";\r\n        }else{\r\n            return \"error\";\r\n        }\r\n    }\r\n    \r\n    function validateToken(bytes32 token) private returns(bool){\r\n        var user = validUsers[token];\r\n        uint diff = now - user.time;\r\n        if(diff >= 172800){ //2 days\r\n            return false;\r\n        }else{\r\n            return true;\r\n        }\r\n    }\r\n    \r\n    //Using token becuase the user need to be logged into the account already\r\n    //before allowing users to use third party \r\n    //\r\n    function thirdPartyAuth(bytes32 token) public returns (bool,bytes32){\r\n        bool check  = validateToken(token);\r\n        if(check){\r\n            //generate Token for third party\r\n            var authToken = generateThirdPartyToken();\r\n            return (true,authToken);\r\n        }else{\r\n            //get user to login\r\n            return (false,0);\r\n        }\r\n    }\r\n    \r\n    function generateThirdPartyToken() public returns(bytes32){\r\n        bytes32 Token3rd;\r\n        Token3rd = keccak256(block.number,block.timestamp);\r\n        \r\n        return Token3rd;\r\n    }\r\n}",
  "sourcePath": "C:\\Users\\Shusen Shrestha\\Documents\\Summer Work\\FullStack\\Site2\\contracts\\Token.sol",
  "compiler": {
    "name": "solc",
    "version": "0.4.23+commit.124ca40d.Emscripten.clang"
  },
  "schemaVersion": "2.0.0",
  "updatedAt": "2018-06-14T17:23:41.767Z"
}